:100000002CEF06F00000000000EF00F00000000000
:0A0010000000000000000000F3D71C
:10001C0043C06AFF016A0150000A05E1000E68B096
:0C002C00010E016EF8D76ACF00F0120040
:1000380043C0C9FF016A0150000A05E1000EC7B0BC
:0C004800010E016EF8D7C9CF00F01200C5
:0C00540042B002D08B9401D08B841200CB
:0C00600042B002D08B9601D08B861200BB
:0C006C0042B002D08B9A01D08B8A1200A7
:0C00780042B002D08B9801D08B8812009F
:0C00840042B002D08B9E01D08B8E120087
:0C00900042B002D08B9601D08B8612008B
:0C009C0042B002D08B9801D08B8812007B
:0C00A80042B002D08B9801D08B8812006F
:0C00B40042B002D08B9E01D08B8E120057
:0C00C00042B002D08B9C01D08B8C12004F
:1000CC0042C0C9FF016A0150000A05E1000EC7B029
:0C00DC00010E016EF8D7C9CF01F0120030
:1000E80042C06AFF016A0150000A05E1000E68B0CB
:0C00F800010E016EF8D76ACF01F0120073
:0C01040042B002D0899201D08982120022
:0C01100042B002D08D9201D08D8212000E
:0C011C0042B002D08B9601D08B861200FE
:0C01280042B002D08B9801D08B881200EE
:0C01340042B002D08B9601D08B861200E6
:0C01400042B002D08B9601D08B861200DA
:10014C00F250026EF29E0500FF6A0150FE6E0050E6
:08015C00FD6E02BEF28E1200DE
:0C01640042B002D08A9201D08A821200C0
:0C01700042B002D08D9001D08D801200B2
:0C017C0042B002D08B9A01D08B8A120096
:0C01880042B002D08F9001D08F80120096
:0C01940042B002D08F9201D08F82120086
:0C01A00042B002D08B9801D08B88120076
:0C01AC0042B002D08D9601D08D8612006A
:0C01B80042B002D08B9601D08B86120062
:0C01C40042B002D08B9801D08B88120052
:0C01D00042B002D0899401D08984120052
:0C01DC0042B002D08A9401D08A84120044
:0C01E80042B002D08F9401D08F8412002E
:0C01F40042B002D08B9C01D08B8C12001A
:0C02000042B002D08D9401D08D84120019
:0C020C0042B002D08B9001D08B80120019
:100218000F0121B302D00000FBD742C01CFF12001F
:0E022800ACB202D00000FCD742C0ADFF120005
:0C02360042B002D0899001D089801200F3
:0C02420042B002D0899801D089881200D7
:0C024E0042B002D08B9201D08B821200D3
:0C025A0042B002D08B9A01D08B8A1200B7
:0C02660042B002D08A9001D08A801200C1
:10027200380E196E000E1A6E430E1B6E000E1C6EA7
:10028200CC0E1D6E000E1E6E420E1F6E000E206EF4
:10029200949A3850040A02E1948601D09496948884
:1002A200C66AC79CC79E3850C6123A50C612395009
:1002B200C7123A5205E03B50000AD8B4C78C03D0AB
:0A02C2003B52D8A4C78CC68A120074
:1002CC0038C03EF039C03FF03AC040F03BC041F07E
:1002DC003CC000F03DC001F0010E3C5E000E3D5AEA
:1002EC00005001101AE027C0E1FF28C0E2FF3EC019
:1002FC00E9FF3FC0EAFFEECFE6FF25C000F026C0C5
:10030C0001F01EDF40C0E1FF41C0E2FF00C0E6FF8C
:0C031C00404A412A3E4A3F2ADBD712002B
:1003280035C0F6FF36C0F7FF37C0F8FF0900F5CF34
:1003380038F0040E3524F66E000E3620F76E000EE7
:100348003720F86E0900F5CF39F0080E3524F66E1F
:10035800000E3620F76E000E3720F86E0900F5CF34
:100368003AF00C0E3524F66E000E3620F76E000EAD
:100378003720F86E0900F5CF3BF077DF000E006EEE
:02038800120061
:10038A0035C0F6FF36C0F7FF37C0F8FF0900F5CFD2
:10039A0038F0040E3524F66E000E3620F76E000E85
:1003AA003720F86E0900F5CF39F0080E3524F66EBD
:1003BA00000E3620F76E000E3720F86E0900F5CFD2
:1003CA003AF00C0E3524F66E000E3620F76E000E4B
:1003DA003720F86E0900F5CF3BF046DF000E006EBD
:0203EA001200FF
:1003EC0035C0F6FF36C0F7FF37C0F8FF0900F5CF70
:1003FC0021F00900F5CF22F00900F5CF23F0090018
:10040C00F5CF24F0040E3524F66E000E3620F76E70
:10041C00000E3720F86E0900F5CF25F00900F5CF56
:10042C0026F00900F5CF27F00900F5CF28F01200CF
:10043C00080E3524F66E000E3620F76E000E3720AF
:10044C00F86E0900F5CF29F00900F5CF2AF0090064
:10045C00F5CF2BF00900F5CF2CF0180E3524F66EE5
:10046C00000E3620F76E000E3720F86E0900F5CF1F
:10047C0015F00900F5CF16F00900F5CF17F00900BB
:06048C00F5CF18F012008C
:1004920035C0F6FF36C0F7FF37C0F8FF0900F5CFC9
:1004A20038F0040E3524F66E000E3620F76E000E7C
:1004B2003720F86E0900F5CF39F0080E3524F66EB4
:1004C200000E3620F76E000E3720F86E0900F5CFC9
:1004D2003AF00C0E3524F66E000E3620F76E000E42
:1004E2003720F86E0900F5CF3BF0C2DE000E006E39
:0204F2001200F6
:1004F400086A080E0C6E003408360450085ED8B042
:0E05040002D00826D89000360C2EF5D7120033
:100512004DD036B002D0929001D092800F01259139
:100522006AD036B002D0949001D0948064D036B0B4
:1005320002D0969001D096805ED036B002D09496CA
:1005420001D0948658D036B002D0949801D09488C5
:1005520052D036B002D0949A01D0948A4CD036B0A0
:1005620002D0949201D0948246D036B002D09390B9
:1005720001D0938040D036B002D0949E01D0948EA8
:100582003AD036B002D0949C01D0948C34D036B09C
:1005920002D0949601D094862ED036B002D0949890
:1005A20001D0948828D0010E006E27D03550000A61
:1005B200B0E03550010AB5E03550020AB8E03550D6
:1005C200030ABBE03550040ABEE03550050AC1E01B
:1005D2003550060AC4E03550070AC7E03550080A0C
:1005E200CAE03550090ACDE035500A0AD0E035504C
:0C05F2000B0AD3E0D8D7000E006E1200F8
:1005FE00D20E3524F66E0C0EF76E000EF722000E9C
:0E060E00F86E000EF8220900F5CF00F0120081
:10061C004DD036B002D0929201D092820F01259328
:10062C006AD036B002D0929801D0928864D036B09D
:10063C0002D0969201D096825ED036B002D09496BB
:10064C0001D0948658D036B002D0949801D09488BA
:10065C0052D036B002D0949A01D0948A4CD036B095
:10066C0002D0949401D0948446D036B002D09392A8
:10067C0001D0938240D036B002D0949E01D0948E9B
:10068C003AD036B002D0949C01D0948C34D036B091
:10069C0002D0949601D094862ED036B002D0949885
:1006AC0001D0948828D0010E006E27D03550000A56
:1006BC00B0E03550010AB5E03550020AB8E03550CB
:1006CC00030ABBE03550040ABEE03550050AC1E010
:1006DC003550060AC4E03550070AC7E03550080A01
:1006EC00CAE03550090ACDE035500A0AD0E0355041
:0C06FC000B0AD3E0D8D7000E006E1200ED
:1007080035C036F02BC0E1FF2CC0E2FFE66A29C0F5
:1007180000F02AC001F016DD360E386E000E396E74
:10072800360E3A6E000E3B6E010E3C6E000E3D6EAC
:10073800C9DD2BC0E1FF2CC0E2FF010EE66E29C027
:0A07480000F02AC001F0FEDC1200F0
:1007520051D036B002D0929401D092840F012595E7
:100762006ED036B002D0969601D0968668D036B05A
:1007720002D0969401D0968462D036B002D094967C
:1007820001D094865CD036B002D0949801D094887F
:1007920056D036B002D0949A01D0948A50D036B056
:1007A20002D0989001D098804AD036B002D093946B
:1007B20001D0938444D036B002D0989401D098846A
:1007C2000F0123953CD036B002D0989201D0988286
:1007D2000F01239334D036B002D0949601D0948680
:1007E2002ED036B002D0949801D0948828D0010E31
:1007F200006E27D03550000AACE03550010AB1E056
:100802003550020AB4E03550030AB7E03550040A05
:10081200BAE03550050ABDE03550060AC0E0355051
:10082200070AC3E03550080AC6E03550090ACBE092
:1008320035500A0AD0E035500B0AD3E0D8D7000E63
:04084200006E120032
:10084600090E0B6E1E0E0C6EE40E0D6E0D2EFED7EF
:0C0856000C2EFCD70B2EFAD7000012006D
:1008620015D030C035F031C036F052DE19D030C06C
:1008720035F031C036F0D1DE13D030C035F031C0A2
:1008820036F066DF0DD0010E006E0AD02F50000A3E
:10089200E8E02F50010AEBE02F50020AEEE0F3D716
:0208A200120042
:1008A4001BD030C035F031C036F032C037F03ADDFD
:1008B4001DD030C035F031C036F032C037F0E7DD3E
:1008C40015D030C035F031C036F032C037F05BDDC2
:1008D4000DD0010E006E0AD02F50000AE2E02F5016
:0E08E400010AE7E02F50020AECE0F3D7120001
:1008F20017C0E1FF18C0E2FFE66A15C000F016C09B
:0609020001F023DC1200ED
:10090800640E046E2FC000F0F1DD08C000F000C0D6
:1009180032F032C02FF00A0E046E32C000F0E6DD6D
:1009280000C031F00A0E046E32C000F0DFDD08C0EE
:1009380000F000C030F0356AE3DE356AE1DE30C031
:1009480035F059DE00C035F0DBDE31C035F053DE5E
:0A095800800E0010356ED4DE120090
:10096200FF0E2F14036E30C004F0000E041603C0F5
:100972002FF004C030F003C000F004C001F00132D7
:100982000032019E01320032019E01320032019E8C
:1009920001320032019E00C032F00F0E0314006ECD
:1009A20004C001F0000E011600C031F0356AABDE62
:1009B200356AA9DE010E325C09E231C035F01EDE75
:1009C20000C035F0A0DE356A9EDE0CD031C035F0B5
:1009D20015DE00C035F097DE32C035F00FDE00C004
:0609E20035F091DE120069
:1009E800640E046E2FC000F081DD08C000F000C066
:1009F80032F032C02FF00A0E046E32C000F076DDFD
:100A080000C031F00A0E046E32C000F06FDD08C07D
:100A180000F000C030F0356A73DE356A71DE010E11
:100A2800315C0AE230C035F0E6DD800E0010356E2C
:100A380067DE356A65DE0DD030C035F0DCDD800E4E
:100A48000010356E5DDE31C035F0D5DD00C035F003
:040A580057DE120053
:100A5C00640E046E2FC000F047DD08C000F000C02B
:100A6C0032F032C02FF00A0E046E32C000F03CDDC2
:100A7C0000C031F00A0E046E32C000F035DD08C043
:100A8C0000F000C030F0356A39DE356A37DE010E11
:100A9C00315C09E230C035F0ACDD00C035F02EDE43
:100AAC00356A2CDE0CD030C035F0A3DD00C035F03B
:100ABC0025DE31C035F09DDD00C035F01FDE1200A3
:100ACC0032C035F033C036F034C037F089DC2FC07B
:100ADC0035F030C036F031C037F0AADC2BC0E1FF66
:100AEC002CC0E2FF010EE66E29C000F02AC001F016
:100AFC00A6EC00F017C0E1FF18C0E2FF010EE66E95
:0E0B0C0015C000F016C001F0A6EC00F01200BB
:100B1A0017C0E1FF18C0E2FF010EE66E15C000F033
:0A0B2A0016C001F0A6EC00F0120066
:100B3400520E0B6E2B0E0C6E000E0D6E0D2EFED78C
:0C0B44000C2EFCD70B2EFAD7000012007C
:100B50002F6A060E306E316A84DE2F6A020E306E06
:100B6000316A7FDE2F6AC20E306E0C0E316E000EBF
:080B7000326E98DE68DE12000F
:100B7800620E2F6E0C0E306E000E316EE20E326E6B
:0C0B88000C0E336E000E346E9DDF120068
:100B9400C2DF380E356EB6DDF10E356EB3DDC8DF5B
:100BA4002D6A2E6A000E2E5C02E1640E2D5C07E2B3
:100BB4002DC02FF0A7DE2D4A2E2A43DEF3D7B8DF4F
:100BC400B80E356E9FDD710E356E9CDDB1DF2D6A7A
:100BD4002E6A000E2E5C02E1640E2D5C07E22DC02D
:100BE4002FF000DF2D4A2E2A2CDEF3D7A1DF790E59
:100BF400356E88DD5E0E356E85DD9ADF2D6A2E6AD0
:100C0400000E2E5C02E1640E2D5C07E22DC02FF075
:100C140023DF2D4A2E2A15DEF3D78ADF790E356EAF
:100C240071DD760E356E6EDD83DF2D6A2E6A010E60
:100C34002E5C02E1000E2D5C09E22DC02FF02EC0C7
:100C440030F08DDE2D4A2E2AFCDDF1D771DF4FDE28
:040C54006FDF12003C
:0A0C58007BDF8EDF9BDFFED7FFD7A6
:100C6200360242000C024200700142004001420082
:100C72009C0042005A0242004E02420066024200BA
:100C8200B4004200C00042001C01420028014200A0
:100C9200FFFFFFFFFFFFFFFFFFFFFFFFFFFFFFFF62
:100CA200FFFFFFFFFFFFFFFFFFFFFFFFFFFFFFFF52
:100CB200FFFFFFFFFFFFFFFFFFFFFFFFFFFFFFFF42
:100CC200020000000000000000000000010000001F
:100CD2003F065B4F666D7D077F6F777C395E79716A
:080CE200CC0042003800430081
:020000040030CA
:0E00000015137F7CF98B91FFFFC0FFE0FF40DE
:00000001FF
